{
  "_format": "hh-sol-artifact-1",
  "contractName": "MetawoodMarketPlace",
  "sourceName": "contracts/MetawoodMarketPlace.sol",
  "abi": [
    {
      "inputs": [
        {
          "internalType": "address",
          "name": "metawoodNftAddress",
          "type": "address"
        }
      ],
      "stateMutability": "nonpayable",
      "type": "constructor"
    },
    {
      "anonymous": false,
      "inputs": [
        {
          "indexed": false,
          "internalType": "uint256",
          "name": "listingId",
          "type": "uint256"
        }
      ],
      "name": "ListingClosed",
      "type": "event"
    },
    {
      "anonymous": false,
      "inputs": [
        {
          "indexed": false,
          "internalType": "uint256",
          "name": "listingId",
          "type": "uint256"
        },
        {
          "indexed": true,
          "internalType": "address",
          "name": "creator",
          "type": "address"
        },
        {
          "indexed": false,
          "internalType": "uint256",
          "name": "tokenId",
          "type": "uint256"
        },
        {
          "indexed": false,
          "internalType": "uint256",
          "name": "tokenPrice",
          "type": "uint256"
        }
      ],
      "name": "ListingCreated",
      "type": "event"
    },
    {
      "anonymous": false,
      "inputs": [
        {
          "indexed": false,
          "internalType": "uint256",
          "name": "tokenId",
          "type": "uint256"
        },
        {
          "indexed": false,
          "internalType": "uint256",
          "name": "tokenPrice",
          "type": "uint256"
        },
        {
          "indexed": false,
          "internalType": "uint256",
          "name": "listingId",
          "type": "uint256"
        },
        {
          "indexed": true,
          "internalType": "address",
          "name": "buyer",
          "type": "address"
        }
      ],
      "name": "NFTBuy",
      "type": "event"
    },
    {
      "anonymous": false,
      "inputs": [
        {
          "indexed": true,
          "internalType": "address",
          "name": "previousOwner",
          "type": "address"
        },
        {
          "indexed": true,
          "internalType": "address",
          "name": "newOwner",
          "type": "address"
        }
      ],
      "name": "OwnershipTransferred",
      "type": "event"
    },
    {
      "anonymous": false,
      "inputs": [
        {
          "indexed": true,
          "internalType": "address",
          "name": "user",
          "type": "address"
        },
        {
          "indexed": false,
          "internalType": "string",
          "name": "data",
          "type": "string"
        }
      ],
      "name": "UserSaved",
      "type": "event"
    },
    {
      "inputs": [
        {
          "internalType": "string",
          "name": "tokenName",
          "type": "string"
        },
        {
          "internalType": "address",
          "name": "tokenContract",
          "type": "address"
        }
      ],
      "name": "addSupportedToken",
      "outputs": [],
      "stateMutability": "nonpayable",
      "type": "function"
    },
    {
      "inputs": [
        {
          "internalType": "uint256",
          "name": "listingId",
          "type": "uint256"
        }
      ],
      "name": "buyNft",
      "outputs": [],
      "stateMutability": "nonpayable",
      "type": "function"
    },
    {
      "inputs": [
        {
          "internalType": "uint256",
          "name": "listingId",
          "type": "uint256"
        }
      ],
      "name": "closeListing",
      "outputs": [],
      "stateMutability": "nonpayable",
      "type": "function"
    },
    {
      "inputs": [
        {
          "internalType": "uint256",
          "name": "tokenId",
          "type": "uint256"
        },
        {
          "internalType": "uint256",
          "name": "tokenPrice",
          "type": "uint256"
        }
      ],
      "name": "createListing",
      "outputs": [],
      "stateMutability": "nonpayable",
      "type": "function"
    },
    {
      "inputs": [],
      "name": "getAllOpenListings",
      "outputs": [
        {
          "components": [
            {
              "internalType": "uint256",
              "name": "id",
              "type": "uint256"
            },
            {
              "internalType": "address",
              "name": "creator",
              "type": "address"
            },
            {
              "internalType": "uint256",
              "name": "tokenId",
              "type": "uint256"
            },
            {
              "internalType": "uint256",
              "name": "price",
              "type": "uint256"
            },
            {
              "internalType": "enum MetawoodMarketPlace.ListingState",
              "name": "status",
              "type": "uint8"
            }
          ],
          "internalType": "struct MetawoodMarketPlace.Listing[]",
          "name": "",
          "type": "tuple[]"
        }
      ],
      "stateMutability": "view",
      "type": "function"
    },
    {
      "inputs": [
        {
          "internalType": "uint256",
          "name": "threshold",
          "type": "uint256"
        }
      ],
      "name": "getLatestListings",
      "outputs": [
        {
          "components": [
            {
              "internalType": "uint256",
              "name": "id",
              "type": "uint256"
            },
            {
              "internalType": "address",
              "name": "creator",
              "type": "address"
            },
            {
              "internalType": "uint256",
              "name": "tokenId",
              "type": "uint256"
            },
            {
              "internalType": "uint256",
              "name": "price",
              "type": "uint256"
            },
            {
              "internalType": "enum MetawoodMarketPlace.ListingState",
              "name": "status",
              "type": "uint8"
            }
          ],
          "internalType": "struct MetawoodMarketPlace.Listing[]",
          "name": "",
          "type": "tuple[]"
        }
      ],
      "stateMutability": "view",
      "type": "function"
    },
    {
      "inputs": [
        {
          "internalType": "uint256",
          "name": "listingId",
          "type": "uint256"
        }
      ],
      "name": "getListing",
      "outputs": [
        {
          "components": [
            {
              "internalType": "uint256",
              "name": "id",
              "type": "uint256"
            },
            {
              "internalType": "address",
              "name": "creator",
              "type": "address"
            },
            {
              "internalType": "uint256",
              "name": "tokenId",
              "type": "uint256"
            },
            {
              "internalType": "uint256",
              "name": "price",
              "type": "uint256"
            },
            {
              "internalType": "enum MetawoodMarketPlace.ListingState",
              "name": "status",
              "type": "uint8"
            }
          ],
          "internalType": "struct MetawoodMarketPlace.Listing",
          "name": "listing",
          "type": "tuple"
        }
      ],
      "stateMutability": "view",
      "type": "function"
    },
    {
      "inputs": [
        {
          "internalType": "address",
          "name": "_user",
          "type": "address"
        }
      ],
      "name": "getOpenListings",
      "outputs": [
        {
          "components": [
            {
              "internalType": "uint256",
              "name": "id",
              "type": "uint256"
            },
            {
              "internalType": "address",
              "name": "creator",
              "type": "address"
            },
            {
              "internalType": "uint256",
              "name": "tokenId",
              "type": "uint256"
            },
            {
              "internalType": "uint256",
              "name": "price",
              "type": "uint256"
            },
            {
              "internalType": "enum MetawoodMarketPlace.ListingState",
              "name": "status",
              "type": "uint8"
            }
          ],
          "internalType": "struct MetawoodMarketPlace.Listing[]",
          "name": "",
          "type": "tuple[]"
        }
      ],
      "stateMutability": "view",
      "type": "function"
    },
    {
      "inputs": [
        {
          "internalType": "address",
          "name": "_user",
          "type": "address"
        }
      ],
      "name": "getOwnedTokens",
      "outputs": [
        {
          "internalType": "uint256[]",
          "name": "",
          "type": "uint256[]"
        }
      ],
      "stateMutability": "view",
      "type": "function"
    },
    {
      "inputs": [
        {
          "internalType": "address",
          "name": "userAddress",
          "type": "address"
        }
      ],
      "name": "getUser",
      "outputs": [
        {
          "components": [
            {
              "internalType": "address",
              "name": "userId",
              "type": "address"
            },
            {
              "internalType": "string",
              "name": "data",
              "type": "string"
            }
          ],
          "internalType": "struct MetawoodMarketPlace.User",
          "name": "",
          "type": "tuple"
        }
      ],
      "stateMutability": "view",
      "type": "function"
    },
    {
      "inputs": [],
      "name": "owner",
      "outputs": [
        {
          "internalType": "address",
          "name": "",
          "type": "address"
        }
      ],
      "stateMutability": "view",
      "type": "function"
    },
    {
      "inputs": [],
      "name": "renounceOwnership",
      "outputs": [],
      "stateMutability": "nonpayable",
      "type": "function"
    },
    {
      "inputs": [
        {
          "internalType": "string",
          "name": "data",
          "type": "string"
        }
      ],
      "name": "saveUser",
      "outputs": [],
      "stateMutability": "nonpayable",
      "type": "function"
    },
    {
      "inputs": [
        {
          "internalType": "address",
          "name": "newOwner",
          "type": "address"
        }
      ],
      "name": "transferOwnership",
      "outputs": [],
      "stateMutability": "nonpayable",
      "type": "function"
    }
  ],
  "bytecode": "0x608060405234801561001057600080fd5b5060405162001c8038038062001c80833981016040819052610031916100b3565b61003a33610063565b60018055600280546001600160a01b0319166001600160a01b03929092169190911790556100e1565b600080546001600160a01b038381166001600160a01b0319831681178455604051919092169283917f8be0079c531659141344cd1fd0a4f28419497f9722a3daafe3b4186f6b6457e09190a35050565b6000602082840312156100c4578081fd5b81516001600160a01b03811681146100da578182fd5b9392505050565b611b8f80620000f16000396000f3fe608060405234801561001057600080fd5b50600436106100ea5760003560e01c806399c720971161008c578063d9d6165511610066578063d9d61655146101d1578063e5a255cb146101f1578063ed88ed6c14610204578063f2fde38b1461021757600080fd5b806399c7209714610198578063a79123a9146101ab578063cbe95ec4146101be57600080fd5b80636f77926b116100c85780636f77926b1461014d578063715018a61461016d578063773e7977146101755780638da5cb5b1461017d57600080fd5b8063107a274a146100ef5780631b7cdf5a14610118578063243adbdd14610138575b600080fd5b6101026100fd366004611841565b61022a565b60405161010f9190611a38565b60405180910390f35b61012b610126366004611841565b6102d0565b60405161010f9190611933565b61014b610146366004611841565b610483565b005b61016061015b366004611779565b6108a7565b60405161010f9190611a4c565b61014b610983565b61012b6109b9565b6000546040516001600160a01b03909116815260200161010f565b61014b6101a63660046117ba565b610bc4565b61014b6101b9366004611871565b610c59565b61012b6101cc366004611779565b610e51565b6101e46101df366004611779565b6110ad565b60405161010f9190611981565b61014b6101ff366004611841565b61132f565b61014b6102123660046117f5565b61148e565b61014b610225366004611779565b6114fc565b6102326115e7565b600082815260046020818152604092839020835160a081018552815481526001808301546001600160a01b0316938201939093526002820154948101949094526003810154606085015291820154608084019160ff909116908111156102a857634e487b7160e01b600052602160045260246000fd5b60018111156102c757634e487b7160e01b600052602160045260246000fd5b90525092915050565b606060008267ffffffffffffffff8111156102fb57634e487b7160e01b600052604160045260246000fd5b60405190808252806020026020018201604052801561033457816020015b6103216115e7565b8152602001906001900390816103195790505b509050600061034260035490565b905060005b84811080156103565750600082115b1561047a5760008281526004602081905260408220015460ff16600181111561038f57634e487b7160e01b600052602160045260246000fd5b141561046857600082815260046020818152604092839020835160a081018552815481526001808301546001600160a01b0316938201939093526002820154948101949094526003810154606085015291820154608084019160ff9091169081111561040b57634e487b7160e01b600052602160045260246000fd5b600181111561042a57634e487b7160e01b600052602160045260246000fd5b8152505083828151811061044e57634e487b7160e01b600052603260045260246000fd5b6020026020010181905250808061046490611b12565b9150505b8161047281611ac0565b925050610347565b50909392505050565b600260015414156104af5760405162461bcd60e51b81526004016104a690611a01565b60405180910390fd5b6002600155600080828152600460208190526040909120015460ff1660018111156104ea57634e487b7160e01b600052602160045260246000fd5b146105375760405162461bcd60e51b815260206004820152601a60248201527f546865206974656d206973206e6f7420666f722073616c65212100000000000060448201526064016104a6565b60008181526004602052604090819020600301549051656e617469766560d01b8152600590600601908152604051908190036020018120546370a0823160e01b82523360048301526001600160a01b0316906370a082319060240160206040518083038186803b1580156105aa57600080fd5b505afa1580156105be573d6000803e3d6000fd5b505050506040513d601f19601f820116820180604052508101906105e29190611859565b10156106275760405162461bcd60e51b8152602060048201526014602482015273496e73756666696369656e742066756e6473212160601b60448201526064016104a6565b6000818152600460205260409020600101546001600160a01b031633141561068a5760405162461bcd60e51b815260206004820152601660248201527543616e6e6f7420427579204f776e6564204974656d2160501b60448201526064016104a6565b6002805460008381526004602081905260409182902060018082015491909501549251637921219560e11b81526001600160a01b03918216818401523360248201526044810193909352606483019490945260a0608483015260a4820152630307830360e41b60c482015291169063f242432a9060e401600060405180830381600087803b15801561071b57600080fd5b505af115801561072f573d6000803e3d6000fd5b50505050600560405161074e90656e617469766560d01b815260060190565b90815260408051602092819003830181205460008581526004948590529290922060018101546003909101546323b872dd60e01b835233948301949094526001600160a01b03908116602483015260448201939093529116906323b872dd90606401602060405180830381600087803b1580156107ca57600080fd5b505af11580156107de573d6000803e3d6000fd5b505050506040513d601f19601f82011682018060405250810190610802919061179a565b50600081815260046020818152604092839020918201805460ff19166001179055600282015460039092015483519283529082015290810182905233907f897dff58b1a2c4a24426264e5189c18efc4f0e04889a45c7d43dfb269beee76b9060600160405180910390a26040518181527fe99def7a5a3c84553486ad726f7c64fbeea0bdbcbe46d5ee07958a8bf5d8e2dd906020015b60405180910390a15060018055565b604080518082018252600080825260606020808401919091526001600160a01b0385811683526006825291849020845180860190955280549092168452600182018054939493918401916108fa90611ad7565b80601f016020809104026020016040519081016040528092919081815260200182805461092690611ad7565b80156109735780601f1061094857610100808354040283529160200191610973565b820191906000526020600020905b81548152906001019060200180831161095657829003601f168201915b5050505050815250509050919050565b6000546001600160a01b031633146109ad5760405162461bcd60e51b81526004016104a6906119cc565b6109b76000611597565b565b6060600060015b6003548111610a235760008181526004602081905260408220015460ff1660018111156109fd57634e487b7160e01b600052602160045260246000fd5b1415610a115781610a0d81611b12565b9250505b80610a1b81611b12565b9150506109c0565b5060008167ffffffffffffffff811115610a4d57634e487b7160e01b600052604160045260246000fd5b604051908082528060200260200182016040528015610a8657816020015b610a736115e7565b815260200190600190039081610a6b5790505b50905060015b6003548111610bbd5760008181526004602081905260408220015460ff166001811115610ac957634e487b7160e01b600052602160045260246000fd5b1415610bab57600081815260046020818152604092839020835160a081018552815481526001808301546001600160a01b0316938201939093526002820154948101949094526003810154606085015291820154608084019160ff90911690811115610b4557634e487b7160e01b600052602160045260246000fd5b6001811115610b6457634e487b7160e01b600052602160045260246000fd5b90525082610b73600186611a79565b81518110610b9157634e487b7160e01b600052603260045260246000fd5b60200260200101819052508280610ba790611ac0565b9350505b80610bb581611b12565b915050610a8c565b5092915050565b60408051808201825233808252602080830185815260009283526006825293909120825181546001600160a01b0319166001600160a01b0390911617815592518051929392610c19926001850192019061163d565b50506040513391507fe8be120eec6174c397f2163f4ded7c38bad3178219fbfe5b55cb12cd62a75c4790610c4e9084906119b9565b60405180910390a250565b60026001541415610c7c5760405162461bcd60e51b81526004016104a690611a01565b6002600181905554604051627eeac760e11b8152336004820152602481018490526000916001600160a01b03169062fdd58e9060440160206040518083038186803b158015610cca57600080fd5b505afa158015610cde573d6000803e3d6000fd5b505050506040513d601f19601f82011682018060405250810190610d029190611859565b11610d425760405162461bcd60e51b815260206004820152601060248201526f546f6b656e204e6f74204f776e65642160801b60448201526064016104a6565b610d50600380546001019055565b6000610d5b60035490565b6040805160a08101825282815233602080830191825282840188815260608401888152600060808601818152888252600494859052969020855181559351600180860180546001600160a01b0319166001600160a01b039093169290921790915591516002850155516003840155935190820180549596509294919390929160ff1916908381811115610dfe57634e487b7160e01b600052602160045260246000fd5b02179055505060408051838152602081018690529081018490523391507f12dc294b81a709d694b1337a350a12a00076c19a77a25aab67a5f0c07e0f164d9060600160405180910390a250506001805550565b6060600060015b6003548111610ee35760008181526004602081905260408220015460ff166001811115610e9557634e487b7160e01b600052602160045260246000fd5b148015610ebe57506000818152600460205260409020600101546001600160a01b038581169116145b15610ed15781610ecd81611b12565b9250505b80610edb81611b12565b915050610e58565b5060008167ffffffffffffffff811115610f0d57634e487b7160e01b600052604160045260246000fd5b604051908082528060200260200182016040528015610f4657816020015b610f336115e7565b815260200190600190039081610f2b5790505b50905060015b60035481116110a55760008181526004602081905260408220015460ff166001811115610f8957634e487b7160e01b600052602160045260246000fd5b148015610fb257506000818152600460205260409020600101546001600160a01b038681169116145b1561109357600081815260046020818152604092839020835160a081018552815481526001808301546001600160a01b0316938201939093526002820154948101949094526003810154606085015291820154608084019160ff9091169081111561102d57634e487b7160e01b600052602160045260246000fd5b600181111561104c57634e487b7160e01b600052602160045260246000fd5b9052508261105b600186611a79565b8151811061107957634e487b7160e01b600052603260045260246000fd5b6020026020010181905250828061108f90611ac0565b9350505b8061109d81611b12565b915050610f4c565b509392505050565b6060600080600260009054906101000a90046001600160a01b03166001600160a01b03166378a895676040518163ffffffff1660e01b815260040160206040518083038186803b15801561110057600080fd5b505afa158015611114573d6000803e3d6000fd5b505050506040513d601f19601f820116820180604052508101906111389190611859565b905060015b8181116111ed57600254604051627eeac760e11b81526001600160a01b03878116600483015260248201849052600092169062fdd58e9060440160206040518083038186803b15801561118f57600080fd5b505afa1580156111a3573d6000803e3d6000fd5b505050506040513d601f19601f820116820180604052508101906111c79190611859565b11156111db57826111d781611b12565b9350505b806111e581611b12565b91505061113d565b5060008267ffffffffffffffff81111561121757634e487b7160e01b600052604160045260246000fd5b604051908082528060200260200182016040528015611240578160200160208202803683370190505b509050600060015b83811161132457600254604051627eeac760e11b81526001600160a01b03898116600483015260248201849052600092169062fdd58e9060440160206040518083038186803b15801561129a57600080fd5b505afa1580156112ae573d6000803e3d6000fd5b505050506040513d601f19601f820116820180604052508101906112d29190611859565b111561131257808383815181106112f957634e487b7160e01b600052603260045260246000fd5b60209081029190910101528161130e81611b12565b9250505b8061131c81611b12565b915050611248565b509095945050505050565b600260015414156113525760405162461bcd60e51b81526004016104a690611a01565b60026001908155600082815260046020526040902001546001600160a01b031633146113c05760405162461bcd60e51b815260206004820152601f60248201527f4e6f74207468652063726561746f72206f6620746865206c697374696e67210060448201526064016104a6565b60008181526004602081905260408220015460ff1660018111156113f457634e487b7160e01b600052602160045260246000fd5b146114415760405162461bcd60e51b815260206004820152601b60248201527f4c697374696e6720697320616c726561647920636c6f7365642121000000000060448201526064016104a6565b600081815260046020818152604092839020909101805460ff1916600117905590518281527fe99def7a5a3c84553486ad726f7c64fbeea0bdbcbe46d5ee07958a8bf5d8e2dd9101610898565b6000546001600160a01b031633146114b85760405162461bcd60e51b81526004016104a6906119cc565b806005836040516114c99190611917565b90815260405190819003602001902080546001600160a01b03929092166001600160a01b03199092169190911790555050565b6000546001600160a01b031633146115265760405162461bcd60e51b81526004016104a6906119cc565b6001600160a01b03811661158b5760405162461bcd60e51b815260206004820152602660248201527f4f776e61626c653a206e6577206f776e657220697320746865207a65726f206160448201526564647265737360d01b60648201526084016104a6565b61159481611597565b50565b600080546001600160a01b038381166001600160a01b0319831681178455604051919092169283917f8be0079c531659141344cd1fd0a4f28419497f9722a3daafe3b4186f6b6457e09190a35050565b6040518060a001604052806000815260200160006001600160a01b0316815260200160008152602001600081526020016000600181111561163857634e487b7160e01b600052602160045260246000fd5b905290565b82805461164990611ad7565b90600052602060002090601f01602090048101928261166b57600085556116b1565b82601f1061168457805160ff19168380011785556116b1565b828001600101855582156116b1579182015b828111156116b1578251825591602001919060010190611696565b506116bd9291506116c1565b5090565b5b808211156116bd57600081556001016116c2565b80356001600160a01b03811681146116ed57600080fd5b919050565b600082601f830112611702578081fd5b813567ffffffffffffffff8082111561171d5761171d611b43565b604051601f8301601f19908116603f0116810190828211818310171561174557611745611b43565b8160405283815286602085880101111561175d578485fd5b8360208701602083013792830160200193909352509392505050565b60006020828403121561178a578081fd5b611793826116d6565b9392505050565b6000602082840312156117ab578081fd5b81518015158114611793578182fd5b6000602082840312156117cb578081fd5b813567ffffffffffffffff8111156117e1578182fd5b6117ed848285016116f2565b949350505050565b60008060408385031215611807578081fd5b823567ffffffffffffffff81111561181d578182fd5b611829858286016116f2565b925050611838602084016116d6565b90509250929050565b600060208284031215611852578081fd5b5035919050565b60006020828403121561186a578081fd5b5051919050565b60008060408385031215611883578182fd5b50508035926020909101359150565b600081518084526118aa816020860160208601611a90565b601f01601f19169290920160200192915050565b805182526020808201516001600160a01b031690830152604080820151908301526060808201519083015260808101516002811061190c57634e487b7160e01b600052602160045260246000fd5b806080840152505050565b60008251611929818460208701611a90565b9190910192915050565b6020808252825182820181905260009190848201906040850190845b81811015611975576119628385516118be565b9284019260a0929092019160010161194f565b50909695505050505050565b6020808252825182820181905260009190848201906040850190845b818110156119755783518352928401929184019160010161199d565b6020815260006117936020830184611892565b6020808252818101527f4f776e61626c653a2063616c6c6572206973206e6f7420746865206f776e6572604082015260600190565b6020808252601f908201527f5265656e7472616e637947756172643a207265656e7472616e742063616c6c00604082015260600190565b60a08101611a4682846118be565b92915050565b602080825282516001600160a01b0316828201528201516040808301526000906117ed6060840182611892565b600082821015611a8b57611a8b611b2d565b500390565b60005b83811015611aab578181015183820152602001611a93565b83811115611aba576000848401525b50505050565b600081611acf57611acf611b2d565b506000190190565b600181811c90821680611aeb57607f821691505b60208210811415611b0c57634e487b7160e01b600052602260045260246000fd5b50919050565b6000600019821415611b2657611b26611b2d565b5060010190565b634e487b7160e01b600052601160045260246000fd5b634e487b7160e01b600052604160045260246000fdfea2646970667358221220d1335af3e6f1836944c866e123e7477565792527863c080467b00e6591dd97d264736f6c63430008040033",
  "linkReferences": {},
  "deployedLinkReferences": {}
}