{
  "_format": "hh-sol-artifact-1",
  "contractName": "MetawoodNft",
  "sourceName": "contracts/MetawoodNft.sol",
  "abi": [
    {
      "inputs": [],
      "stateMutability": "nonpayable",
      "type": "constructor"
    },
    {
      "anonymous": false,
      "inputs": [
        {
          "indexed": true,
          "internalType": "address",
          "name": "account",
          "type": "address"
        },
        {
          "indexed": true,
          "internalType": "address",
          "name": "operator",
          "type": "address"
        },
        {
          "indexed": false,
          "internalType": "bool",
          "name": "approved",
          "type": "bool"
        }
      ],
      "name": "ApprovalForAll",
      "type": "event"
    },
    {
      "anonymous": false,
      "inputs": [
        {
          "indexed": true,
          "internalType": "address",
          "name": "previousOwner",
          "type": "address"
        },
        {
          "indexed": true,
          "internalType": "address",
          "name": "newOwner",
          "type": "address"
        }
      ],
      "name": "OwnershipTransferred",
      "type": "event"
    },
    {
      "anonymous": false,
      "inputs": [
        {
          "indexed": false,
          "internalType": "uint256",
          "name": "_id",
          "type": "uint256"
        },
        {
          "indexed": false,
          "internalType": "string",
          "name": "_uri",
          "type": "string"
        }
      ],
      "name": "SetTokenURI",
      "type": "event"
    },
    {
      "anonymous": false,
      "inputs": [
        {
          "indexed": true,
          "internalType": "address",
          "name": "operator",
          "type": "address"
        },
        {
          "indexed": true,
          "internalType": "address",
          "name": "from",
          "type": "address"
        },
        {
          "indexed": true,
          "internalType": "address",
          "name": "to",
          "type": "address"
        },
        {
          "indexed": false,
          "internalType": "uint256[]",
          "name": "ids",
          "type": "uint256[]"
        },
        {
          "indexed": false,
          "internalType": "uint256[]",
          "name": "values",
          "type": "uint256[]"
        }
      ],
      "name": "TransferBatch",
      "type": "event"
    },
    {
      "anonymous": false,
      "inputs": [
        {
          "indexed": true,
          "internalType": "address",
          "name": "operator",
          "type": "address"
        },
        {
          "indexed": true,
          "internalType": "address",
          "name": "from",
          "type": "address"
        },
        {
          "indexed": true,
          "internalType": "address",
          "name": "to",
          "type": "address"
        },
        {
          "indexed": false,
          "internalType": "uint256",
          "name": "id",
          "type": "uint256"
        },
        {
          "indexed": false,
          "internalType": "uint256",
          "name": "value",
          "type": "uint256"
        }
      ],
      "name": "TransferSingle",
      "type": "event"
    },
    {
      "anonymous": false,
      "inputs": [
        {
          "indexed": false,
          "internalType": "string",
          "name": "value",
          "type": "string"
        },
        {
          "indexed": true,
          "internalType": "uint256",
          "name": "id",
          "type": "uint256"
        }
      ],
      "name": "URI",
      "type": "event"
    },
    {
      "inputs": [
        {
          "internalType": "address",
          "name": "account",
          "type": "address"
        },
        {
          "internalType": "uint256",
          "name": "id",
          "type": "uint256"
        }
      ],
      "name": "balanceOf",
      "outputs": [
        {
          "internalType": "uint256",
          "name": "",
          "type": "uint256"
        }
      ],
      "stateMutability": "view",
      "type": "function"
    },
    {
      "inputs": [
        {
          "internalType": "address[]",
          "name": "accounts",
          "type": "address[]"
        },
        {
          "internalType": "uint256[]",
          "name": "ids",
          "type": "uint256[]"
        }
      ],
      "name": "balanceOfBatch",
      "outputs": [
        {
          "internalType": "uint256[]",
          "name": "",
          "type": "uint256[]"
        }
      ],
      "stateMutability": "view",
      "type": "function"
    },
    {
      "inputs": [
        {
          "internalType": "address",
          "name": "account",
          "type": "address"
        },
        {
          "internalType": "uint256",
          "name": "id",
          "type": "uint256"
        },
        {
          "internalType": "uint256",
          "name": "value",
          "type": "uint256"
        }
      ],
      "name": "burn",
      "outputs": [],
      "stateMutability": "nonpayable",
      "type": "function"
    },
    {
      "inputs": [
        {
          "internalType": "address",
          "name": "account",
          "type": "address"
        },
        {
          "internalType": "uint256[]",
          "name": "ids",
          "type": "uint256[]"
        },
        {
          "internalType": "uint256[]",
          "name": "values",
          "type": "uint256[]"
        }
      ],
      "name": "burnBatch",
      "outputs": [],
      "stateMutability": "nonpayable",
      "type": "function"
    },
    {
      "inputs": [
        {
          "internalType": "uint256",
          "name": "id",
          "type": "uint256"
        }
      ],
      "name": "exists",
      "outputs": [
        {
          "internalType": "bool",
          "name": "",
          "type": "bool"
        }
      ],
      "stateMutability": "view",
      "type": "function"
    },
    {
      "inputs": [],
      "name": "getTokenCount",
      "outputs": [
        {
          "internalType": "uint256",
          "name": "",
          "type": "uint256"
        }
      ],
      "stateMutability": "view",
      "type": "function"
    },
    {
      "inputs": [
        {
          "internalType": "address",
          "name": "account",
          "type": "address"
        },
        {
          "internalType": "address",
          "name": "operator",
          "type": "address"
        }
      ],
      "name": "isApprovedForAll",
      "outputs": [
        {
          "internalType": "bool",
          "name": "",
          "type": "bool"
        }
      ],
      "stateMutability": "view",
      "type": "function"
    },
    {
      "inputs": [
        {
          "internalType": "uint256",
          "name": "amount",
          "type": "uint256"
        },
        {
          "internalType": "string",
          "name": "tokenUrl",
          "type": "string"
        },
        {
          "internalType": "bytes",
          "name": "data",
          "type": "bytes"
        }
      ],
      "name": "mint",
      "outputs": [],
      "stateMutability": "nonpayable",
      "type": "function"
    },
    {
      "inputs": [
        {
          "internalType": "address",
          "name": "to",
          "type": "address"
        },
        {
          "internalType": "uint256[]",
          "name": "ids",
          "type": "uint256[]"
        },
        {
          "internalType": "uint256[]",
          "name": "amounts",
          "type": "uint256[]"
        },
        {
          "internalType": "bytes",
          "name": "data",
          "type": "bytes"
        }
      ],
      "name": "mintBatch",
      "outputs": [],
      "stateMutability": "nonpayable",
      "type": "function"
    },
    {
      "inputs": [],
      "name": "owner",
      "outputs": [
        {
          "internalType": "address",
          "name": "",
          "type": "address"
        }
      ],
      "stateMutability": "view",
      "type": "function"
    },
    {
      "inputs": [],
      "name": "renounceOwnership",
      "outputs": [],
      "stateMutability": "nonpayable",
      "type": "function"
    },
    {
      "inputs": [
        {
          "internalType": "address",
          "name": "from",
          "type": "address"
        },
        {
          "internalType": "address",
          "name": "to",
          "type": "address"
        },
        {
          "internalType": "uint256[]",
          "name": "ids",
          "type": "uint256[]"
        },
        {
          "internalType": "uint256[]",
          "name": "amounts",
          "type": "uint256[]"
        },
        {
          "internalType": "bytes",
          "name": "data",
          "type": "bytes"
        }
      ],
      "name": "safeBatchTransferFrom",
      "outputs": [],
      "stateMutability": "nonpayable",
      "type": "function"
    },
    {
      "inputs": [
        {
          "internalType": "address",
          "name": "from",
          "type": "address"
        },
        {
          "internalType": "address",
          "name": "to",
          "type": "address"
        },
        {
          "internalType": "uint256",
          "name": "id",
          "type": "uint256"
        },
        {
          "internalType": "uint256",
          "name": "amount",
          "type": "uint256"
        },
        {
          "internalType": "bytes",
          "name": "data",
          "type": "bytes"
        }
      ],
      "name": "safeTransferFrom",
      "outputs": [],
      "stateMutability": "nonpayable",
      "type": "function"
    },
    {
      "inputs": [
        {
          "internalType": "address",
          "name": "operator",
          "type": "address"
        },
        {
          "internalType": "bool",
          "name": "approved",
          "type": "bool"
        }
      ],
      "name": "setApprovalForAll",
      "outputs": [],
      "stateMutability": "nonpayable",
      "type": "function"
    },
    {
      "inputs": [
        {
          "internalType": "address",
          "name": "marketPlaceAddress",
          "type": "address"
        }
      ],
      "name": "setMarketPlace",
      "outputs": [],
      "stateMutability": "nonpayable",
      "type": "function"
    },
    {
      "inputs": [
        {
          "internalType": "uint256",
          "name": "tokenId",
          "type": "uint256"
        },
        {
          "internalType": "string",
          "name": "tokenURI",
          "type": "string"
        }
      ],
      "name": "setTokenURI",
      "outputs": [],
      "stateMutability": "nonpayable",
      "type": "function"
    },
    {
      "inputs": [
        {
          "internalType": "string",
          "name": "newuri",
          "type": "string"
        }
      ],
      "name": "setURI",
      "outputs": [],
      "stateMutability": "nonpayable",
      "type": "function"
    },
    {
      "inputs": [
        {
          "internalType": "bytes4",
          "name": "interfaceId",
          "type": "bytes4"
        }
      ],
      "name": "supportsInterface",
      "outputs": [
        {
          "internalType": "bool",
          "name": "",
          "type": "bool"
        }
      ],
      "stateMutability": "view",
      "type": "function"
    },
    {
      "inputs": [
        {
          "internalType": "uint256",
          "name": "id",
          "type": "uint256"
        }
      ],
      "name": "totalSupply",
      "outputs": [
        {
          "internalType": "uint256",
          "name": "",
          "type": "uint256"
        }
      ],
      "stateMutability": "view",
      "type": "function"
    },
    {
      "inputs": [
        {
          "internalType": "address",
          "name": "newOwner",
          "type": "address"
        }
      ],
      "name": "transferOwnership",
      "outputs": [],
      "stateMutability": "nonpayable",
      "type": "function"
    },
    {
      "inputs": [
        {
          "internalType": "uint256",
          "name": "tokenId",
          "type": "uint256"
        }
      ],
      "name": "uri",
      "outputs": [
        {
          "internalType": "string",
          "name": "",
          "type": "string"
        }
      ],
      "stateMutability": "view",
      "type": "function"
    }
  ],
  "bytecode": "0x60806040523480156200001157600080fd5b506040805160208101909152600081526200002c816200003e565b50620000383362000057565b6200018c565b805162000053906002906020840190620000a9565b5050565b600380546001600160a01b038381166001600160a01b0319831681179093556040519116919082907f8be0079c531659141344cd1fd0a4f28419497f9722a3daafe3b4186f6b6457e090600090a35050565b828054620000b7906200014f565b90600052602060002090601f016020900481019282620000db576000855562000126565b82601f10620000f657805160ff191683800117855562000126565b8280016001018555821562000126579182015b828111156200012657825182559160200191906001019062000109565b506200013492915062000138565b5090565b5b8082111562000134576000815560010162000139565b600181811c908216806200016457607f821691505b602082108114156200018657634e487b7160e01b600052602260045260246000fd5b50919050565b6123d2806200019c6000396000f3fe608060405234801561001057600080fd5b50600436106101365760003560e01c80636b20c454116100b8578063a22cb4651161007c578063a22cb46514610298578063bd85b039146102ab578063e985e9c5146102cb578063f242432a14610307578063f2fde38b1461031a578063f5298aca1461032d57600080fd5b80636b20c45414610247578063715018a61461025a578063785cc9971461026257806378a89567146102755780638da5cb5b1461027d57600080fd5b80631f7fdffa116100ff5780631f7fdffa146101cc5780632eb2c2d6146101df57806330568a8d146101f25780634e1273f4146102055780634f558e791461022557600080fd5b8062fdd58e1461013b57806301ffc9a71461016157806302fe5305146101845780630e89341c14610199578063162094c4146101b9575b600080fd5b61014e610149366004611ba3565b610340565b6040519081526020015b60405180910390f35b61017461016f366004611cc8565b6103d7565b6040519015158152602001610158565b610197610192366004611d00565b610429565b005b6101ac6101a7366004611d3a565b61045f565b6040516101589190611f54565b6101976101c7366004611d52565b610501565b6101976101da366004611ad5565b610588565b6101976101ed36600461195e565b6105c4565b61019761020036600461190b565b61065b565b610218610213366004611bfe565b6106a7565b6040516101589190611f13565b610174610233366004611d3a565b600090815260046020526040902054151590565b610197610255366004611a65565b610808565b610197610850565b610197610270366004611d8c565b610886565b61014e610935565b6003546040516001600160a01b039091168152602001610158565b6101976102a6366004611b69565b610945565b61014e6102b9366004611d3a565b60009081526004602052604090205490565b6101746102d936600461192c565b6001600160a01b03918216600090815260016020908152604080832093909416825291909152205460ff1690565b610197610315366004611a03565b610954565b61019761032836600461190b565b610999565b61019761033b366004611bcc565b610a31565b60006001600160a01b0383166103b15760405162461bcd60e51b815260206004820152602b60248201527f455243313135353a2062616c616e636520717565727920666f7220746865207a60448201526a65726f206164647265737360a81b60648201526084015b60405180910390fd5b506000908152602081815260408083206001600160a01b03949094168352929052205490565b60006001600160e01b03198216636cdb3d1360e11b148061040857506001600160e01b031982166303a24d0760e21b145b8061042357506301ffc9a760e01b6001600160e01b03198316145b92915050565b6003546001600160a01b031633146104535760405162461bcd60e51b81526004016103a89061210e565b61045c81610a74565b50565b600081815260076020526040902080546060919061047c90612237565b80601f01602080910402602001604051908101604052809291908181526020018280546104a890612237565b80156104f55780601f106104ca576101008083540402835291602001916104f5565b820191906000526020600020905b8154815290600101906020018083116104d857829003601f168201915b50505050509050919050565b6003546001600160a01b0316331461052b5760405162461bcd60e51b81526004016103a89061210e565b6000828152600760209081526040909120825161054a92840190611774565b507fd2d827dddfc9c9a02afc5fc68d3251684b36e213a7999ebd90a861f25df4077e828260405161057c9291906121cc565b60405180910390a15050565b6003546001600160a01b031633146105b25760405162461bcd60e51b81526004016103a89061210e565b6105be84848484610a87565b50505050565b6001600160a01b0385163314806105e057506105e085336102d9565b6106475760405162461bcd60e51b815260206004820152603260248201527f455243313135353a207472616e736665722063616c6c6572206973206e6f74206044820152711bdddb995c881b9bdc88185c1c1c9bdd995960721b60648201526084016103a8565b6106548585858585610bfd565b5050505050565b6003546001600160a01b031633146106855760405162461bcd60e51b81526004016103a89061210e565b600580546001600160a01b0319166001600160a01b0392909216919091179055565b6060815183511461070c5760405162461bcd60e51b815260206004820152602960248201527f455243313135353a206163636f756e747320616e6420696473206c656e677468604482015268040dad2e6dac2e8c6d60bb1b60648201526084016103a8565b600083516001600160401b0381111561073557634e487b7160e01b600052604160045260246000fd5b60405190808252806020026020018201604052801561075e578160200160208202803683370190505b50905060005b8451811015610800576107c585828151811061079057634e487b7160e01b600052603260045260246000fd5b60200260200101518583815181106107b857634e487b7160e01b600052603260045260246000fd5b6020026020010151610340565b8282815181106107e557634e487b7160e01b600052603260045260246000fd5b60209081029190910101526107f98161229e565b9050610764565b509392505050565b6001600160a01b038316331480610824575061082483336102d9565b6108405760405162461bcd60e51b81526004016103a890611ff3565b61084b838383610dc3565b505050565b6003546001600160a01b0316331461087a5760405162461bcd60e51b81526004016103a89061210e565b6108846000610f6d565b565b610894600680546001019055565b6108a8336108a160065490565b8584610fbf565b81600760006108b660065490565b815260200190815260200160002090805190602001906108d7929190611774565b506005546108ef906001600160a01b03166001610945565b7fd2d827dddfc9c9a02afc5fc68d3251684b36e213a7999ebd90a861f25df4077e61091960065490565b836040516109289291906121cc565b60405180910390a1505050565b600061094060065490565b905090565b610950338383611095565b5050565b6001600160a01b038516331480610970575061097085336102d9565b61098c5760405162461bcd60e51b81526004016103a890611ff3565b6106548585858585611176565b6003546001600160a01b031633146109c35760405162461bcd60e51b81526004016103a89061210e565b6001600160a01b038116610a285760405162461bcd60e51b815260206004820152602660248201527f4f776e61626c653a206e6577206f776e657220697320746865207a65726f206160448201526564647265737360d01b60648201526084016103a8565b61045c81610f6d565b6001600160a01b038316331480610a4d5750610a4d83336102d9565b610a695760405162461bcd60e51b81526004016103a890611ff3565b61084b838383611293565b8051610950906002906020840190611774565b6001600160a01b038416610aad5760405162461bcd60e51b81526004016103a89061218b565b8151835114610ace5760405162461bcd60e51b81526004016103a890612143565b33610ade81600087878787611394565b60005b8451811015610b9557838181518110610b0a57634e487b7160e01b600052603260045260246000fd5b6020026020010151600080878481518110610b3557634e487b7160e01b600052603260045260246000fd5b602002602001015181526020019081526020016000206000886001600160a01b03166001600160a01b031681526020019081526020016000206000828254610b7d9190612208565b90915550819050610b8d8161229e565b915050610ae1565b50846001600160a01b031660006001600160a01b0316826001600160a01b03167f4a39dc06d4c0dbc64b70af90fd698a233a518aa5d07e595d983b8c0526c8f7fb8787604051610be6929190611f26565b60405180910390a4610654816000878787876113a2565b8151835114610c1e5760405162461bcd60e51b81526004016103a890612143565b6001600160a01b038416610c445760405162461bcd60e51b81526004016103a89061203c565b33610c53818787878787611394565b60005b8451811015610d55576000858281518110610c8157634e487b7160e01b600052603260045260246000fd5b602002602001015190506000858381518110610cad57634e487b7160e01b600052603260045260246000fd5b602090810291909101810151600084815280835260408082206001600160a01b038e168352909352919091205490915081811015610cfd5760405162461bcd60e51b81526004016103a8906120c4565b6000838152602081815260408083206001600160a01b038e8116855292528083208585039055908b16825281208054849290610d3a908490612208565b9250508190555050505080610d4e9061229e565b9050610c56565b50846001600160a01b0316866001600160a01b0316826001600160a01b03167f4a39dc06d4c0dbc64b70af90fd698a233a518aa5d07e595d983b8c0526c8f7fb8787604051610da5929190611f26565b60405180910390a4610dbb8187878787876113a2565b505050505050565b6001600160a01b038316610de95760405162461bcd60e51b81526004016103a890612081565b8051825114610e0a5760405162461bcd60e51b81526004016103a890612143565b6000339050610e2d81856000868660405180602001604052806000815250611394565b60005b8351811015610f0e576000848281518110610e5b57634e487b7160e01b600052603260045260246000fd5b602002602001015190506000848381518110610e8757634e487b7160e01b600052603260045260246000fd5b602090810291909101810151600084815280835260408082206001600160a01b038c168352909352919091205490915081811015610ed75760405162461bcd60e51b81526004016103a890611faf565b6000928352602083815260408085206001600160a01b038b1686529091529092209103905580610f068161229e565b915050610e30565b5060006001600160a01b0316846001600160a01b0316826001600160a01b03167f4a39dc06d4c0dbc64b70af90fd698a233a518aa5d07e595d983b8c0526c8f7fb8686604051610f5f929190611f26565b60405180910390a450505050565b600380546001600160a01b038381166001600160a01b0319831681179093556040519116919082907f8be0079c531659141344cd1fd0a4f28419497f9722a3daafe3b4186f6b6457e090600090a35050565b6001600160a01b038416610fe55760405162461bcd60e51b81526004016103a89061218b565b3361100581600087610ff68861150d565b610fff8861150d565b87611394565b6000848152602081815260408083206001600160a01b038916845290915281208054859290611035908490612208565b909155505060408051858152602081018590526001600160a01b0380881692600092918516917fc3d58168c5ae7397731d063d5bbf3d657854427343f4c083240f7aacaa2d0f62910160405180910390a461065481600087878787611566565b816001600160a01b0316836001600160a01b031614156111095760405162461bcd60e51b815260206004820152602960248201527f455243313135353a2073657474696e6720617070726f76616c20737461747573604482015268103337b91039b2b63360b91b60648201526084016103a8565b6001600160a01b03838116600081815260016020908152604080832094871680845294825291829020805460ff191686151590811790915591519182527f17307eab39ab6107e8899845ad3d59bd9653f200f220920489ca2b5937696c31910160405180910390a3505050565b6001600160a01b03841661119c5760405162461bcd60e51b81526004016103a89061203c565b336111ac818787610ff68861150d565b6000848152602081815260408083206001600160a01b038a168452909152902054838110156111ed5760405162461bcd60e51b81526004016103a8906120c4565b6000858152602081815260408083206001600160a01b038b811685529252808320878503905590881682528120805486929061122a908490612208565b909155505060408051868152602081018690526001600160a01b03808916928a821692918616917fc3d58168c5ae7397731d063d5bbf3d657854427343f4c083240f7aacaa2d0f62910160405180910390a461128a828888888888611566565b50505050505050565b6001600160a01b0383166112b95760405162461bcd60e51b81526004016103a890612081565b336112e8818560006112ca8761150d565b6112d38761150d565b60405180602001604052806000815250611394565b6000838152602081815260408083206001600160a01b0388168452909152902054828110156113295760405162461bcd60e51b81526004016103a890611faf565b6000848152602081815260408083206001600160a01b03898116808652918452828520888703905582518981529384018890529092908616917fc3d58168c5ae7397731d063d5bbf3d657854427343f4c083240f7aacaa2d0f62910160405180910390a45050505050565b610dbb868686868686611630565b6001600160a01b0384163b15610dbb5760405163bc197c8160e01b81526001600160a01b0385169063bc197c81906113e69089908990889088908890600401611e70565b602060405180830381600087803b15801561140057600080fd5b505af1925050508015611430575060408051601f3d908101601f1916820190925261142d91810190611ce4565b60015b6114dd5761143c6122e5565b806308c379a0141561147657506114516122fd565b8061145c5750611478565b8060405162461bcd60e51b81526004016103a89190611f54565b505b60405162461bcd60e51b815260206004820152603460248201527f455243313135353a207472616e7366657220746f206e6f6e20455243313135356044820152732932b1b2b4bb32b91034b6b83632b6b2b73a32b960611b60648201526084016103a8565b6001600160e01b0319811663bc197c8160e01b1461128a5760405162461bcd60e51b81526004016103a890611f67565b6040805160018082528183019092526060916000919060208083019080368337019050509050828160008151811061155557634e487b7160e01b600052603260045260246000fd5b602090810291909101015292915050565b6001600160a01b0384163b15610dbb5760405163f23a6e6160e01b81526001600160a01b0385169063f23a6e61906115aa9089908990889088908890600401611ece565b602060405180830381600087803b1580156115c457600080fd5b505af19250505080156115f4575060408051601f3d908101601f191682019092526115f191810190611ce4565b60015b6116005761143c6122e5565b6001600160e01b0319811663f23a6e6160e01b1461128a5760405162461bcd60e51b81526004016103a890611f67565b6001600160a01b0385166116d35760005b83518110156116d15782818151811061166a57634e487b7160e01b600052603260045260246000fd5b60200260200101516004600086848151811061169657634e487b7160e01b600052603260045260246000fd5b6020026020010151815260200190815260200160002060008282546116bb9190612208565b909155506116ca90508161229e565b9050611641565b505b6001600160a01b038416610dbb5760005b835181101561128a5782818151811061170d57634e487b7160e01b600052603260045260246000fd5b60200260200101516004600086848151811061173957634e487b7160e01b600052603260045260246000fd5b60200260200101518152602001908152602001600020600082825461175e9190612220565b9091555061176d90508161229e565b90506116e4565b82805461178090612237565b90600052602060002090601f0160209004810192826117a257600085556117e8565b82601f106117bb57805160ff19168380011785556117e8565b828001600101855582156117e8579182015b828111156117e85782518255916020019190600101906117cd565b506117f49291506117f8565b5090565b5b808211156117f457600081556001016117f9565b80356001600160a01b038116811461182457600080fd5b919050565b600082601f830112611839578081fd5b81356020611846826121e5565b6040516118538282612272565b8381528281019150858301600585901b87018401881015611872578586fd5b855b8581101561189057813584529284019290840190600101611874565b5090979650505050505050565b600082601f8301126118ad578081fd5b81356001600160401b038111156118c6576118c66122cf565b6040516118dd601f8301601f191660200182612272565b8181528460208386010111156118f1578283fd5b816020850160208301379081016020019190915292915050565b60006020828403121561191c578081fd5b6119258261180d565b9392505050565b6000806040838503121561193e578081fd5b6119478361180d565b91506119556020840161180d565b90509250929050565b600080600080600060a08688031215611975578081fd5b61197e8661180d565b945061198c6020870161180d565b935060408601356001600160401b03808211156119a7578283fd5b6119b389838a01611829565b945060608801359150808211156119c8578283fd5b6119d489838a01611829565b935060808801359150808211156119e9578283fd5b506119f68882890161189d565b9150509295509295909350565b600080600080600060a08688031215611a1a578081fd5b611a238661180d565b9450611a316020870161180d565b9350604086013592506060860135915060808601356001600160401b03811115611a59578182fd5b6119f68882890161189d565b600080600060608486031215611a79578283fd5b611a828461180d565b925060208401356001600160401b0380821115611a9d578384fd5b611aa987838801611829565b93506040860135915080821115611abe578283fd5b50611acb86828701611829565b9150509250925092565b60008060008060808587031215611aea578384fd5b611af38561180d565b935060208501356001600160401b0380821115611b0e578485fd5b611b1a88838901611829565b94506040870135915080821115611b2f578384fd5b611b3b88838901611829565b93506060870135915080821115611b50578283fd5b50611b5d8782880161189d565b91505092959194509250565b60008060408385031215611b7b578182fd5b611b848361180d565b915060208301358015158114611b98578182fd5b809150509250929050565b60008060408385031215611bb5578182fd5b611bbe8361180d565b946020939093013593505050565b600080600060608486031215611be0578081fd5b611be98461180d565b95602085013595506040909401359392505050565b60008060408385031215611c10578182fd5b82356001600160401b0380821115611c26578384fd5b818501915085601f830112611c39578384fd5b81356020611c46826121e5565b604051611c538282612272565b8381528281019150858301600585901b870184018b1015611c72578889fd5b8896505b84871015611c9b57611c878161180d565b835260019690960195918301918301611c76565b5096505086013592505080821115611cb1578283fd5b50611cbe85828601611829565b9150509250929050565b600060208284031215611cd9578081fd5b813561192581612386565b600060208284031215611cf5578081fd5b815161192581612386565b600060208284031215611d11578081fd5b81356001600160401b03811115611d26578182fd5b611d328482850161189d565b949350505050565b600060208284031215611d4b578081fd5b5035919050565b60008060408385031215611d64578182fd5b8235915060208301356001600160401b03811115611d80578182fd5b611cbe8582860161189d565b600080600060608486031215611da0578081fd5b8335925060208401356001600160401b0380821115611dbd578283fd5b611dc98783880161189d565b93506040860135915080821115611dde578283fd5b50611acb8682870161189d565b6000815180845260208085019450808401835b83811015611e1a57815187529582019590820190600101611dfe565b509495945050505050565b60008151808452815b81811015611e4a57602081850181015186830182015201611e2e565b81811115611e5b5782602083870101525b50601f01601f19169290920160200192915050565b6001600160a01b0386811682528516602082015260a060408201819052600090611e9c90830186611deb565b8281036060840152611eae8186611deb565b90508281036080840152611ec28185611e25565b98975050505050505050565b6001600160a01b03868116825285166020820152604081018490526060810183905260a060808201819052600090611f0890830184611e25565b979650505050505050565b6020815260006119256020830184611deb565b604081526000611f396040830185611deb565b8281036020840152611f4b8185611deb565b95945050505050565b6020815260006119256020830184611e25565b60208082526028908201527f455243313135353a204552433131353552656365697665722072656a656374656040820152676420746f6b656e7360c01b606082015260800190565b60208082526024908201527f455243313135353a206275726e20616d6f756e7420657863656564732062616c604082015263616e636560e01b606082015260800190565b60208082526029908201527f455243313135353a2063616c6c6572206973206e6f74206f776e6572206e6f7260408201526808185c1c1c9bdd995960ba1b606082015260800190565b60208082526025908201527f455243313135353a207472616e7366657220746f20746865207a65726f206164604082015264647265737360d81b606082015260800190565b60208082526023908201527f455243313135353a206275726e2066726f6d20746865207a65726f206164647260408201526265737360e81b606082015260800190565b6020808252602a908201527f455243313135353a20696e73756666696369656e742062616c616e636520666f60408201526939103a3930b739b332b960b11b606082015260800190565b6020808252818101527f4f776e61626c653a2063616c6c6572206973206e6f7420746865206f776e6572604082015260600190565b60208082526028908201527f455243313135353a2069647320616e6420616d6f756e7473206c656e677468206040820152670dad2e6dac2e8c6d60c31b606082015260800190565b60208082526021908201527f455243313135353a206d696e7420746f20746865207a65726f206164647265736040820152607360f81b606082015260800190565b828152604060208201526000611d326040830184611e25565b60006001600160401b038211156121fe576121fe6122cf565b5060051b60200190565b6000821982111561221b5761221b6122b9565b500190565b600082821015612232576122326122b9565b500390565b600181811c9082168061224b57607f821691505b6020821081141561226c57634e487b7160e01b600052602260045260246000fd5b50919050565b601f8201601f191681016001600160401b0381118282101715612297576122976122cf565b6040525050565b60006000198214156122b2576122b26122b9565b5060010190565b634e487b7160e01b600052601160045260246000fd5b634e487b7160e01b600052604160045260246000fd5b600060033d11156122fa57600481823e5160e01c5b90565b600060443d101561230b5790565b6040516003193d81016004833e81513d6001600160401b03816024840111818411171561233a57505050505090565b82850191508151818111156123525750505050505090565b843d870101602082850101111561236c5750505050505090565b61237b60208286010187612272565b509095945050505050565b6001600160e01b03198116811461045c57600080fdfea26469706673582212203d3f31d3efae5a9d4ec4f2a72640a868e9f818a53e8741feb12162799f7f70be64736f6c63430008040033",
  "linkReferences": {},
  "deployedLinkReferences": {}
}